{
  "contractName": "BridgeEth",
  "abi": [
    {
      "inputs": [
        {
          "internalType": "address",
          "name": "token",
          "type": "address"
        }
      ],
      "stateMutability": "nonpayable",
      "type": "constructor"
    },
    {
      "anonymous": false,
      "inputs": [
        {
          "indexed": false,
          "internalType": "address",
          "name": "from",
          "type": "address"
        },
        {
          "indexed": false,
          "internalType": "address",
          "name": "to",
          "type": "address"
        },
        {
          "indexed": false,
          "internalType": "uint256",
          "name": "amount",
          "type": "uint256"
        },
        {
          "indexed": false,
          "internalType": "uint256",
          "name": "date",
          "type": "uint256"
        },
        {
          "indexed": false,
          "internalType": "uint256",
          "name": "nonce",
          "type": "uint256"
        },
        {
          "indexed": false,
          "internalType": "bytes",
          "name": "signature",
          "type": "bytes"
        },
        {
          "indexed": true,
          "internalType": "enum BridgeBase.Step",
          "name": "step",
          "type": "uint8"
        }
      ],
      "name": "Transfer",
      "type": "event"
    },
    {
      "inputs": [
        {
          "internalType": "address",
          "name": "to",
          "type": "address"
        },
        {
          "internalType": "uint256",
          "name": "amount",
          "type": "uint256"
        },
        {
          "internalType": "uint256",
          "name": "nonce",
          "type": "uint256"
        },
        {
          "internalType": "bytes",
          "name": "signature",
          "type": "bytes"
        }
      ],
      "name": "burn",
      "outputs": [],
      "stateMutability": "nonpayable",
      "type": "function"
    },
    {
      "inputs": [
        {
          "internalType": "address",
          "name": "from",
          "type": "address"
        },
        {
          "internalType": "address",
          "name": "to",
          "type": "address"
        },
        {
          "internalType": "uint256",
          "name": "amount",
          "type": "uint256"
        },
        {
          "internalType": "uint256",
          "name": "nonce",
          "type": "uint256"
        },
        {
          "internalType": "bytes",
          "name": "signature",
          "type": "bytes"
        }
      ],
      "name": "mint",
      "outputs": [],
      "stateMutability": "nonpayable",
      "type": "function"
    },
    {
      "inputs": [
        {
          "internalType": "address",
          "name": "",
          "type": "address"
        },
        {
          "internalType": "uint256",
          "name": "",
          "type": "uint256"
        }
      ],
      "name": "processedNonces",
      "outputs": [
        {
          "internalType": "bool",
          "name": "",
          "type": "bool"
        }
      ],
      "stateMutability": "view",
      "type": "function"
    },
    {
      "inputs": [],
      "name": "token",
      "outputs": [
        {
          "internalType": "contract IToken",
          "name": "",
          "type": "address"
        }
      ],
      "stateMutability": "view",
      "type": "function"
    }
  ],
  "bytecode": "0x608060405234801561001057600080fd5b50604051610f4f380380610f4f833981810160405281019061003291906100dd565b80806000806101000a81548173ffffffffffffffffffffffffffffffffffffffff021916908373ffffffffffffffffffffffffffffffffffffffff160217905550505061010a565b600080fd5b600073ffffffffffffffffffffffffffffffffffffffff82169050919050565b60006100aa8261007f565b9050919050565b6100ba8161009f565b81146100c557600080fd5b50565b6000815190506100d7816100b1565b92915050565b6000602082840312156100f3576100f261007a565b5b6000610101848285016100c8565b91505092915050565b610e36806101196000396000f3fe608060405234801561001057600080fd5b506004361061004c5760003560e01c806352555702146100515780637cc702401461006d5780638a94b05f1461009d578063fc0c546a146100b9575b600080fd5b61006b600480360381019061006691906107f8565b6100d7565b005b61008760048036038101906100829190610892565b6103c3565b60405161009491906108ed565b60405180910390f35b6100b760048036038101906100b29190610908565b6103f2565b005b6100c16105e9565b6040516100ce91906109ef565b60405180910390f35b600061010e878787876040516020016100f39493929190610a73565b6040516020818303038152906040528051906020012061060d565b90508673ffffffffffffffffffffffffffffffffffffffff166101758285858080601f016020809104026020016040519081016040528093929190818152602001838380828437600081840152601f19601f8201169050808301925050505050505061063d565b73ffffffffffffffffffffffffffffffffffffffff16146101cb576040517f08c379a00000000000000000000000000000000000000000000000000000000081526004016101c290610b1e565b60405180910390fd5b60001515600160008973ffffffffffffffffffffffffffffffffffffffff1673ffffffffffffffffffffffffffffffffffffffff168152602001908152602001600020600086815260200190815260200160002060009054906101000a900460ff1615151461026f576040517f08c379a000000000000000000000000000000000000000000000000000000000815260040161026690610b8a565b60405180910390fd5b60018060008973ffffffffffffffffffffffffffffffffffffffff1673ffffffffffffffffffffffffffffffffffffffff168152602001908152602001600020600086815260200190815260200160002060006101000a81548160ff02191690831515021790555060008054906101000a900473ffffffffffffffffffffffffffffffffffffffff1673ffffffffffffffffffffffffffffffffffffffff166340c10f1987876040518363ffffffff1660e01b8152600401610332929190610bc8565b600060405180830381600087803b15801561034c57600080fd5b505af1158015610360573d6000803e3d6000fd5b5050505060018081111561037757610376610bf1565b5b7fce5a9b86edd3b998c3948a7934c7ecf7dba73c4c5bcf56cf576bca4aa2beeb30888888428989896040516103b29796959493929190610c7e565b60405180910390a250505050505050565b60016020528160005260406000206020528060005260406000206000915091509054906101000a900460ff1681565b60001515600160003373ffffffffffffffffffffffffffffffffffffffff1673ffffffffffffffffffffffffffffffffffffffff168152602001908152602001600020600085815260200190815260200160002060009054906101000a900460ff16151514610496576040517f08c379a000000000000000000000000000000000000000000000000000000000815260040161048d90610b8a565b60405180910390fd5b60018060003373ffffffffffffffffffffffffffffffffffffffff1673ffffffffffffffffffffffffffffffffffffffff168152602001908152602001600020600085815260200190815260200160002060006101000a81548160ff02191690831515021790555060008054906101000a900473ffffffffffffffffffffffffffffffffffffffff1673ffffffffffffffffffffffffffffffffffffffff16639dc29fac33866040518363ffffffff1660e01b8152600401610559929190610bc8565b600060405180830381600087803b15801561057357600080fd5b505af1158015610587573d6000803e3d6000fd5b505050506000600181111561059f5761059e610bf1565b5b7fce5a9b86edd3b998c3948a7934c7ecf7dba73c4c5bcf56cf576bca4aa2beeb30338787428888886040516105da9796959493929190610c7e565b60405180910390a25050505050565b60008054906101000a900473ffffffffffffffffffffffffffffffffffffffff1681565b6000816040516020016106209190610d6a565b604051602081830303815290604052805190602001209050919050565b60008060008061064c856106b2565b8093508194508295505050506001868484846040516000815260200160405260405161067b9493929190610dbb565b6020604051602081039080840390855afa15801561069d573d6000803e3d6000fd5b50505060206040510351935050505092915050565b600080600060418451146106c557600080fd5b60008060006020870151925060408701519150606087015160001a90508083839550955095505050509193909250565b600080fd5b600080fd5b600073ffffffffffffffffffffffffffffffffffffffff82169050919050565b600061072a826106ff565b9050919050565b61073a8161071f565b811461074557600080fd5b50565b60008135905061075781610731565b92915050565b6000819050919050565b6107708161075d565b811461077b57600080fd5b50565b60008135905061078d81610767565b92915050565b600080fd5b600080fd5b600080fd5b60008083601f8401126107b8576107b7610793565b5b8235905067ffffffffffffffff8111156107d5576107d4610798565b5b6020830191508360018202830111156107f1576107f061079d565b5b9250929050565b60008060008060008060a08789031215610815576108146106f5565b5b600061082389828a01610748565b965050602061083489828a01610748565b955050604061084589828a0161077e565b945050606061085689828a0161077e565b935050608087013567ffffffffffffffff811115610877576108766106fa565b5b61088389828a016107a2565b92509250509295509295509295565b600080604083850312156108a9576108a86106f5565b5b60006108b785828601610748565b92505060206108c88582860161077e565b9150509250929050565b60008115159050919050565b6108e7816108d2565b82525050565b600060208201905061090260008301846108de565b92915050565b600080600080600060808688031215610924576109236106f5565b5b600061093288828901610748565b95505060206109438882890161077e565b94505060406109548882890161077e565b935050606086013567ffffffffffffffff811115610975576109746106fa565b5b610981888289016107a2565b92509250509295509295909350565b6000819050919050565b60006109b56109b06109ab846106ff565b610990565b6106ff565b9050919050565b60006109c78261099a565b9050919050565b60006109d9826109bc565b9050919050565b6109e9816109ce565b82525050565b6000602082019050610a0460008301846109e0565b92915050565b60008160601b9050919050565b6000610a2282610a0a565b9050919050565b6000610a3482610a17565b9050919050565b610a4c610a478261071f565b610a29565b82525050565b6000819050919050565b610a6d610a688261075d565b610a52565b82525050565b6000610a7f8287610a3b565b601482019150610a8f8286610a3b565b601482019150610a9f8285610a5c565b602082019150610aaf8284610a5c565b60208201915081905095945050505050565b600082825260208201905092915050565b7f77726f6e67207369676e61747572650000000000000000000000000000000000600082015250565b6000610b08600f83610ac1565b9150610b1382610ad2565b602082019050919050565b60006020820190508181036000830152610b3781610afb565b9050919050565b7f7472616e7366657220616c72656164792070726f636573736564000000000000600082015250565b6000610b74601a83610ac1565b9150610b7f82610b3e565b602082019050919050565b60006020820190508181036000830152610ba381610b67565b9050919050565b610bb38161071f565b82525050565b610bc28161075d565b82525050565b6000604082019050610bdd6000830185610baa565b610bea6020830184610bb9565b9392505050565b7f4e487b7100000000000000000000000000000000000000000000000000000000600052602160045260246000fd5b600082825260208201905092915050565b82818337600083830152505050565b6000601f19601f8301169050919050565b6000610c5d8385610c20565b9350610c6a838584610c31565b610c7383610c40565b840190509392505050565b600060c082019050610c93600083018a610baa565b610ca06020830189610baa565b610cad6040830188610bb9565b610cba6060830187610bb9565b610cc76080830186610bb9565b81810360a0830152610cda818486610c51565b905098975050505050505050565b600081905092915050565b7f19457468657265756d205369676e6564204d6573736167653a0a333200000000600082015250565b6000610d29601c83610ce8565b9150610d3482610cf3565b601c82019050919050565b6000819050919050565b6000819050919050565b610d64610d5f82610d3f565b610d49565b82525050565b6000610d7582610d1c565b9150610d818284610d53565b60208201915081905092915050565b610d9981610d3f565b82525050565b600060ff82169050919050565b610db581610d9f565b82525050565b6000608082019050610dd06000830187610d90565b610ddd6020830186610dac565b610dea6040830185610d90565b610df76060830184610d90565b9594505050505056fea2646970667358221220db02714a1863af04aabb54bd319d3c3f60ba6847537e2f1fee1bbf9caa4512c064736f6c634300080d0033",
  "immutableReferences": {},
  "source": "pragma solidity ^0.8.0;\n\nimport './BridgeBase.sol';\n\ncontract BridgeEth is BridgeBase {\n  constructor(address token) BridgeBase(token) {}\n}\n",
  "sourcePath": "D:\\DeFi\\Bridge\\contracts\\BridgeEth.sol",
  "compiler": {
    "name": "solc",
    "version": "0.8.13+commit.abaa5c0e.Emscripten.clang"
  },
  "schemaVersion": "3.4.11",
  "updatedAt": "2023-01-30T06:07:03.791Z",
  "networkType": "ethereum",
  "devdoc": {
    "kind": "dev",
    "methods": {},
    "version": 1
  },
  "userdoc": {
    "kind": "user",
    "methods": {},
    "version": 1
  }
}